:020000040800F2
:1000000000000220D16B0008AD6A0008B36A000846
:10001000B96A0008BF6A0008C56A0008000000004D
:1000200000000000000000000000000001E40008E3
:10003000CB6A00080000000051E60008D96A0008F9
:10004000216C0008216C0008216C0008216C00085C
:10005000216C0008216C0008216C0008216C00084C
:10006000216C0008216C0008216C0008216C00083C
:10007000216C0008216C0008216C0008216C00082C
:10008000216C0008216C0008216C0008216C00081C
:10009000216C0008216C0008216C0008F36A00083C
:1000A000216C0008056B0008216C0008216C000819
:1000B000216C0008216C0008196B0008216C0008F5
:1000C000216C0008216C0008216C0008216C0008DC
:1000D000216C0008216C0008216C00082D6B0008C1
:1000E000216C0008216C0008216C0008216C0008BC
:1000F000216C0008216C0008216C0008216C0008AC
:10010000216C0008216C0008216C0008216C00089B
:10011000216C0008216C0008216C0008216C00088B
:10012000216C0008216C0008216C0008216C00087B
:10013000216C0008216C0008216C0008216C00086B
:10014000216C0008216C0008216C0008216C00085B
:10015000216C0008216C0008216C0008216C00084B
:10016000216C0008216C0008216C0008216C00083B
:10017000216C0008216C0008216C000800000000C0
:08018000216C0008216C00084D
:1001900010B5054C237833B9044B13B10448AFF3C1
:1001A00000800123237010BDA0010020000000008A
:1001B000BC01010808B5034B1BB103490348AFF369
:1001C000008008BD00000000A4010020BC0101085F
:1001D00001F0FF01102A2BDB10F0070F08D010F8F8
:1001E000013B013A8B422DD010F0070F42B3F6D1FC
:1001F000F0B441EA012141EA014122F007047FF015
:1002000000070023F0E80256083C85EA010586EA6B
:10021000010685FA47F5A3FA87F586FA47F6A5FAA7
:1002200087F68EB9EED1F0BC01F0FF0102F00702B3
:1002300032B110F8013B013A83EA010313B1F8D15E
:100240000020704701387047002D06BF354603383F
:10025000073815F0010F07D1013015F4807F02BF78
:10026000013015F4C03F0130F0BC0138704700BFC9
:1002700081F0004102E000BF83F0004330B54FEA57
:1002800041044FEA430594EA050F08BF90EA020FC4
:100290001FBF54EA000C55EA020C7FEA645C7FEA57
:1002A000655C00F0E2804FEA5454D4EB5555B8BF7A
:1002B0006D420CDD2C4480EA020281EA030382EAEB
:1002C000000083EA010180EA020281EA0303362D7D
:1002D00088BF30BD11F0004F4FEA01314FF4801C50
:1002E0004CEA113102D0404261EB410113F0004F62
:1002F0004FEA03334CEA133302D0524263EB430319
:1003000094EA050F00F0A780A4F10104D5F1200EB6
:100310000DDB02FA0EFC22FA05F2801841F1000111
:1003200003FA0EF2801843FA05F359410EE0A5F1E5
:1003300020050EF1200E012A03FA0EFC28BF4CF016
:10034000020C43FA05F3C01851EBE37101F00045CC
:1003500007D54FF0000EDCF1000C7EEB00006EEBD9
:100360000101B1F5801F1BD3B1F5001F0CD3490863
:100370005FEA30004FEA3C0C04F101044FEA4452BA
:1003800012F5800F80F09A80BCF1004F08BF5FEA41
:10039000500C50F1000041EB045141EA050130BD21
:1003A0005FEA4C0C404141EB0101013C28BFB1F533
:1003B000801FE9D291F0000F04BF01460020B1FA7E
:1003C00081F308BF2033A3F10B03B3F120020CDA51
:1003D0000C3208DD02F1140CC2F10C0201FA0CF02F
:1003E00021FA02F10CE002F11402D8BFC2F1200C94
:1003F00001FA02F120FA0CFCDCBF41EA0C0190404A
:10040000E41AA2BF01EB0451294330BD6FEA040492
:100410001F3C1CDA0C340EDC04F11404C4F120027D
:1004200020FA04F001FA02F340EA030021FA04F38F
:1004300045EA030130BDC4F10C04C4F1200220FAE6
:1004400002F001FA04F340EA0300294630BD21FA24
:1004500004F0294630BD94F0000F83F4801306BFEA
:1004600081F480110134013D4EE77FEA645C18BFDE
:100470007FEA655C29D094EA050F08BF90EA020F75
:1004800005D054EA000C04BF1946104630BD91EA6D
:10049000030F1EBF0021002030BD5FEA545C05D170
:1004A0004000494128BF41F0004130BD14F58004AF
:1004B0003CBF01F5801130BD01F0004545F0FE4123
:1004C00041F470014FF0000030BD7FEA645C1ABF58
:1004D000194610467FEA655C1CBF0B46024650EA8F
:1004E000013406BF52EA033591EA030F41F40021BB
:1004F00030BD00BF90F0000F04BF0021704730B541
:100500004FF4806404F132044FF000054FF0000115
:1005100050E700BF90F0000F04BF0021704730B5D6
:100520004FF4806404F1320410F0004548BF4042AB
:100530004FF000013EE700BF42004FEAE2014FEA00
:1005400031014FEA02701FBF12F07F4393F07F4FDB
:1005500081F06051704732F07F4208BF704793F0DE
:100560007F4F04BF41F40021704730B54FF46074F1
:1005700001F0004521F000411CE700BF50EA0102F4
:1005800008BF704730B54FF000050AE050EA01029D
:1005900008BF704730B511F0004502D5404261EB0D
:1005A00041014FF4806404F132045FEA915C3FF44E
:1005B000D8AE4FF003025FEADC0C18BF03325FEAEB
:1005C000DC0C18BF033202EBDC02C2F1200300FA9C
:1005D00003FC20FA02F001FA03FE40EA0E0021FAC1
:1005E00002F11444BDE600BF70B54FF0FF0C4CF4AF
:1005F000E06C1CEA11541DBF1CEA135594EA0C0F61
:1006000095EA0C0F00F0DEF82C4481EA030621EA9B
:100610004C5123EA4C5350EA013518BF52EA0335D6
:1006200041F4801143F4801338D0A0FB02CE4FF088
:100630000005E1FB02E506F00042E0FB03E54FF0B8
:100640000006E1FB03569CF0000F18BF4EF0010EB0
:10065000A4F1FF04B6F5007F64F5407404D25FEAAC
:100660004E0E6D4146EB060642EAC62141EA55515F
:100670004FEAC52040EA5E504FEACE2EB4F1FD0CA1
:1006800088BFBCF5E06F1ED8BEF1004F08BF5FEA1F
:10069000500E50F1000041EB045170BD06F00046D1
:1006A00046EA010140EA020081EA0301B4EB5C047E
:1006B000C2BFD4EB0C0541EA045170BD41F4801176
:1006C0004FF0000E013C00F3AB8014F1360FDEBF9B
:1006D000002001F0004170BDC4F10004203C35DA77
:1006E0000C341BDC04F11404C4F1200500FA05F3FA
:1006F00020FA04F001FA05F240EA020001F000429B
:1007000021F0004110EBD37021FA04F642EB060110
:100710005EEA430E08BF20EAD37070BDC4F10C043A
:10072000C4F1200500FA04F320FA05F001FA04F2FE
:1007300040EA020001F0004110EBD37041F10001EA
:100740005EEA430E08BF20EAD37070BDC4F12005F5
:1007500000FA05F24EEA020E20FA04F301FA05F25D
:1007600043EA020321FA04F001F0004121FA04F205
:1007700020EA020000EBD3705EEA430E08BF20EAD5
:10078000D37070BD94F0000F0FD101F0004640000F
:1007900041EB010111F4801F08BF013CF7D041EA91
:1007A000060195F0000F18BF704703F00046520095
:1007B00043EB030313F4801F08BF013DF7D043EA66
:1007C0000603704794EA0C0F0CEA135518BF95EA1C
:1007D0000C0F0CD050EA410618BF52EA4306D1D1A3
:1007E00081EA030101F000414FF0000070BD50EAC2
:1007F000410606BF1046194652EA430619D094EA4C
:100800000C0F02D150EA013613D195EA0C0F05D135
:1008100052EA03361CBF104619460AD181EA030189
:1008200001F0004141F0FE4141F470014FF0000041
:1008300070BD41F0FE4141F4780170BD70B54FF0DC
:10084000FF0C4CF4E06C1CEA11541DBF1CEA13555C
:1008500094EA0C0F95EA0C0F00F0A7F8A4EB05043E
:1008600081EA030E52EA03354FEA013100F0888035
:100870004FEA03334FF0805545EA131343EA1263FE
:100880004FEA022245EA111545EA10654FEA0026B3
:100890000EF000419D4208BF964244F1FD0404F56C
:1008A000407402D25B084FEA3202B61A65EB0305C8
:1008B0005B084FEA32024FF480104FF4002CB6EB85
:1008C000020E75EB030E22BFB61A754640EA0C0005
:1008D0005B084FEA3202B6EB020E75EB030E22BF45
:1008E000B61A754640EA5C005B084FEA3202B6EB86
:1008F000020E75EB030E22BFB61A754640EA9C0045
:100900005B084FEA3202B6EB020E75EB030E22BF14
:10091000B61A754640EADC0055EA060E18D04FEAD2
:10092000051545EA16754FEA06164FEAC30343EA72
:1009300052734FEAC2025FEA1C1CC0D111F4801F3F
:100940000BD141EA00014FF000004FF0004CB6E738
:1009500011F4801F04BF01430020B4F1FD0C88BFD7
:10096000BCF5E06F3FF6AFAEB5EB030C04BFB6EBE2
:10097000020C5FEA500C50F1000041EB045170BDD5
:100980000EF0004E4EEA113114EB5C04C2BFD4EB02
:100990000C0541EA045170BD41F480114FF0000E86
:1009A000013C90E645EA060E8DE60CEA135594EA02
:1009B0000C0F08BF95EA0C0F3FF43BAF94EA0C0F05
:1009C0000AD150EA01347FF434AF95EA0C0F7FF47A
:1009D00025AF104619462CE795EA0C0F06D152EACE
:1009E00003353FF4FDAE1046194622E750EA4106B2
:1009F00018BF52EA43067FF4C5AE50EA41047FF4C3
:100A00000DAF52EA43057FF4EBAE12E74FF0FF3C27
:100A100006E000BF4FF0010C02E000BF4FF0010CF8
:100A20004DF804CD4FEA410C7FEA6C5C4FEA430C71
:100A300018BF7FEA6C5C1BD001B050EA410C0CBFC0
:100A400052EA430C91EA030F02BF90EA020F002022
:100A5000704710F1000F91EA030F58BF994208BF89
:100A600090422CBFD8176FEAE37040F00100704746
:100A70004FEA410C7FEA6C5C02D150EA013C07D19D
:100A80004FEA430C7FEA6C5CD6D152EA033CD3D0E8
:100A90005DF8040B704700BF8446104662468C46E2
:100AA0001946634600E000BF01B5FFF7B7FF002815
:100AB00048BF10F1000F01BD4DF808EDFFF7F4FF3E
:100AC0000CBF012000205DF808FB00BF4DF808EDC9
:100AD000FFF7EAFF34BF012000205DF808FB00BFEC
:100AE0004DF808EDFFF7E0FF94BF012000205DF80E
:100AF00008FB00BF4DF808EDFFF7CEFF94BF0120C3
:100B000000205DF808FB00BF4DF808EDFFF7C4FFBB
:100B100034BF012000205DF808FB00BF4A0011D25D
:100B200012F5001211D20DD56FF47873B3EB625247
:100B30000ED44FEAC12343F0004343EA505323FA53
:100B400002F070474FF00000704750EA013002D1C8
:100B50004FF0FF3070474FF0000070474FEA4102FE
:100B6000B2F1E04324BFB3F5001CDCF1FE5C0DD90B
:100B700001F0004C4FEAC0024CEA5070B2F1004F55
:100B800040EB830008BF20F00100704711F0804F58
:100B900021D113F13872BCBF01F00040704741F41D
:100BA00080114FEA5252C2F11802C2F1200C10FA21
:100BB0000CF320FA02F018BF40F001004FEAC12305
:100BC0004FEAD32303FA0CFC40EA0C0023FA02F3A9
:100BD0004FEA4303CCE77FEA625307D150EA01337F
:100BE0001EBF4FF0FE4040F44000704701F000404F
:100BF00040F0FE4040F40000704700BF53B94AB9CE
:100C0000002908BF00281CBF4FF0FF314FF0FF3014
:100C100000F070B9ADF1080C6DE904CE00F006F8F3
:100C2000DDF804E0DDE9022304B070472DE9F04768
:100C3000089E0D4604460F46002B4AD18A42944630
:100C400065D9B2FA82F343B102FA03FCC3F1200280
:100C50009F4020FA02F217439C404FEA1C4E1FFAB5
:100C60008CF5B7FBFEF1220C0EFB117742EA07422E
:100C700001FB05F090420AD91CEB020201F1FF379B
:100C800080F01C81904240F2198102396244121AAC
:100C9000A4B2B2FBFEF00EFB102244EA024400FBB9
:100CA00005F5A5420AD91CEB040400F1FF3280F0DF
:100CB0000781A54240F204816444023840EA0140C1
:100CC000641B00211EB1DC400023C6E90043BDE8DF
:100CD000F0878B4208D9002E00F0ED800021C6E994
:100CE00000050846BDE8F087B3FA83F1002949D131
:100CF000AB4202D3824200F2F880841A65EB030211
:100D000001201746002EE2D0C6E90047DFE702B90E
:100D1000FFDEB2FA82F3002B40F090808A1A4FEA8D
:100D20001C471FFA8CFE0121B2FBF7F507FB1520CB
:100D3000220C42EA00420EFB05F0904208D91CEB5F
:100D4000020205F1FF3802D2904200F2CB80454604
:100D5000121AA4B2B2FBF7F007FB102244EA0244D5
:100D60000EFB00FEA64508D91CEB040400F1FF327F
:100D700002D2A64500F2BB801046A4EB0E0440EA66
:100D800005409FE7C1F120078B4022FA07FC4CEA9F
:100D9000030C05FA01F420FA07F3FD404FEA1C4961
:100DA0002343B5FBF9F81FFA8CFE09FB18551C0C00
:100DB00044EA054408FB0EF5A54202FA01F200FAE6
:100DC00001F00BD91CEB040408F1FF3A80F0888095
:100DD000A54240F28580A8F102086444641B9DB2DC
:100DE000B4FBF9F309FB134445EA044403FB0EFE8C
:100DF000A64508D91CEB040403F1FF356CD2A645C7
:100E00006AD9023B644443EA0843A3FB0295A4EB7E
:100E10000E04AC42C846AE4656D353D056B1B0EBE2
:100E2000080264EB0E0404FA07F7CA40CC401743EB
:100E3000C6E9007418460021BDE8F087C3F120011F
:100E400002FA03FC20FA01F225FA01F19D402A433F
:100E50004FEA1C471FFA8CFEB1FBF7F007FB101599
:100E6000110C41EA054100FB0EF58D4204FA03F432
:100E700008D91CEB010100F1FF382FD28D422DD98A
:100E800002386144491B92B2B1FBF7F507FB15111B
:100E900042EA014205FB0EF1914208D91CEB020225
:100EA00005F1FF3816D2914214D9023D6244521A1C
:100EB00045EA004138E73146304608E73946E6E67C
:100EC0001046FBE64845A9D2B9EB020865EB0C0ECB
:100ED000013BA3E74546EAE72B4694E74046D1E7C6
:100EE000D0467BE7023D624432E708460AE76444A5
:100EF000023842E7704700BF80B58AB004AFF8609F
:100F00000B467A60FB720023FB757B68DBB21B012A
:100F1000DBB27B75FB7A002B01D1682300E06923EB
:100F2000BB75BB7D9BB25B0099B20A230293012380
:100F3000019307F11503009301237F22F86806F05F
:100F4000BDFF0346FB75FB7D18461837BD4680BDC7
:100F500080B588B004AF7860084611461A4603464B
:100F6000FB700B46BB7013467B700023FB73FB7852
:100F7000002B01D1682300E06923BB73BB7B9BB2CC
:100F80005B0099B2BB789AB20A23029301230193C2
:100F90007B1C00930123786806F090FF0346FB73E7
:100FA000FB7B18461037BD4680BD80B584B000AFCE
:100FB00078600B46FB701346BB700023FB73FB7815
:100FC000002219467868FFF797FF0346FB73F9780C
:100FD000802306227868FFF7BBFF0346FB73C82017
:100FE00005F092FEF978012306227868FFF7B0FF3A
:100FF0000346FB73F978382307227868FFF7A8FFC8
:101000000346FB73FB78022219467868FFF774FFEA
:101010000346FB73BB785B005BB243F019035BB222
:10102000DBB2F97801227868FFF792FF0346FB7381
:10103000F978042300227868FFF78AFF0346FB73E0
:10104000FB78002219467868FFF756FF0346FB73CA
:10105000F97802230F227868FFF77AFF0346FB73C3
:1010600000BF1037BD4680BD80B582B000AF78604C
:101070007B681B7F022B78D1414B1B78002B1AD148
:101080000421786809F00EFA03463E4A13603C4B8F
:1010900001221A707B681B681A6A7B681B6822F041
:1010A000A0021A627B681B681A6A7B681B6842F0A0
:1010B00020021A6259E0324B1B78012B55D10421D2
:1010C000786809F0EFF903462F4A13607B681B68C4
:1010D00000225A622C4B1A682A4B1B689A4208D984
:1010E000294B1A68274B1B68D31A1846FFF702FAD8
:1010F0000AE0254B1A68234B1B68D31A03F57F437C
:10110000FF331846FFF7F6F91BA3D3E90023FFF7D7
:101110006BFA02460B46104619464FF000024FF09C
:101120008043FFF78BFB02460B4610461946FFF73C
:1011300015FD0346154A1360114B00221A707B6897
:101140001B681A6A7B681B6822F0A0021A627B681F
:101150001A687B681B68126A1A620D4B1B68DA6892
:101160000B4B1B6822F00402DA6000BF0837BD4653
:1011700080BD00BFAFF300809CC420B07268A13F67
:10118000740500206C050020700500204C0500202F
:101190007803002080B582B000AF05F043FD00F079
:1011A00055F900F0F3FC00F01DFC00F01FFB00F00F
:1011B000C3FC00F07BFA00F06DFB00F049FA00F090
:1011C000A3F900F0BBFB00F0F1F905F00FF90322E1
:1011D00000216848FFF7E9FE674B64221A70664BEE
:1011E00000225A80654B00221A70644B00225A700C
:1011F000634B1A78614B9A7000237B600CE0642388
:101200003B7000237B805D4A7B689B0013443A68F7
:101210005A607B6801337B60594B1B781A467B68A8
:101220009342ECDB9FED571ADFED570AB0EE040A4C
:10123000564801F073F99FED541ADFED530AB0EEF2
:10124000040A534801F06AF99FED4F1ADFED4E0A88
:10125000B7EE080A4F4801F061F94F4B1B789BB27B
:101260001A464E494E4809F084FF0C214D4808F0BB
:10127000C9F900214C4808F0C5F904214A4808F092
:10128000C1F93C21494808F051FD464B1B684A22F0
:101290001A644FF4967005F037FD0AF033FF444AA4
:1012A000002144480AF078FF0346434A1360434A4A
:1012B000002143480AF070FF0346424A1360424A45
:1012C000002142480AF068FF0346414A1360414A40
:1012D000002141480AF060FF0346404A1360404A3B
:1012E000002140480AF058FF03463F4A13603F4A36
:1012F00000213F480AF050FF03463E4A13603E4A31
:1013000000213E480AF048FF03463D4A13603D4A2B
:1013100000213D480AF040FF03463C4A13603C4A26
:1013200000213C480AF038FF03463B4A13603B4A21
:1013300000213B480AF030FF03463A4A13603A4A1C
:1013400000213A480AF028FF0346394A1360394A17
:10135000002139480AF020FF0346384A1360384A12
:10136000002138480AF018FF0346374A13600AF094
:10137000EDFEFEE74C020020C00400208C0400209B
:1013800001000020CDCC4C3F000000001C050020D7
:101390000805002030050020000000208004002007
:1013A00008040020A0020020C0030020E802002062
:1013B000B8020108293D00084C040020DC020108A5
:1013C000D93D000850040020000301081D43000817
:1013D0005404002024030108FD43000858040020A1
:1013E00048030108714600085C0400206C030108F2
:1013F000C14B00086004002090030108BD4C0008A8
:1014000064040020B4030108F150000868040020BF
:10141000D8030108255500086C040020FC030108CE
:101420005D5900087004002020040108995D00083F
:101430007404002044040108415F0008780400207F
:1014400068040108BD5F00087C04002080B594B0EA
:1014500000AF07F120033022002118460DF0DAFB1F
:1014600007F10C0300221A605A609A60DA601A6170
:101470000023BB60224B1B6C214A43F08053136452
:101480001F4B1B6C03F08053BB60BB6800237B6069
:101490001C4B1B681B4A43F480431360194B1B68A9
:1014A00003F480437B607B6802233B620123FB6281
:1014B00010233B630023BB6307F12003184607F0AA
:1014C000A1FB0346002B01D004F0F0FD0F23FB60CD
:1014D00000233B6100237B610023BB610023FB6190
:1014E00007F10C030021184607F004FE0346002B09
:1014F00001D004F0DBFD00BF5037BD4680BD00BF0A
:10150000003802400070004080B584B000AF3B4618
:1015100000221A605A609A60DA60214B214A1A60F0
:101520001F4B00225A601E4B00229A601C4B002267
:101530001A611B4B00221A76194B002283F82020D7
:10154000174B0022DA62164B174A9A62144B00229C
:10155000DA60134B0122DA61114B002283F830204C
:101560000F4B01225A610E4805F0F2FB0346002B97
:1015700001D004F09BFD0B233B6001237B60002323
:10158000BB603B461946064805F0C4FD0346002BE8
:1015900001D004F08BFD00BF1037BD4680BD00BFF9
:1015A000BC010020002001400100000F80B584B084
:1015B00000AF3B4600221A605A609A60DA60214B05
:1015C000214A1A601F4B00225A601E4B00229A606B
:1015D0001C4B00221A611B4B00221A76194B002269
:1015E00083F82020174B0022DA62164B174A9A62C2
:1015F000144B0022DA60134B0122DA61114B0022F6
:1016000083F830200F4B01225A610E4805F0A0FBF1
:101610000346002B01D004F049FD0E233B6001235B
:101620007B600023BB603B461946064805F072FD0F
:101630000346002B01D004F039FD00BF1037BD4632
:1016400080BD00BF04020020002101400100000F06
:1016500080B500AF124B134A1A60114B124A5A6000
:101660000F4B00229A600E4B0022DA600C4B4FF4B5
:1016700080421A610A4B00225A61094B00229A618A
:10168000074B0022DA61064B00221A62044806F07A
:10169000D1FA0346002B01D004F008FD00BF80BD45
:1016A0004C02002000540040A086010080B596B096
:1016B00000AF07F1480300221A605A609A60DA60AE
:1016C00007F1400300221A605A6007F12403002248
:1016D0001A605A609A60DA601A615A619A613B1D19
:1016E0002022002118460DF095FA3E4B3E4A1A6022
:1016F0003C4B4FF4A0725A603A4B00229A60394B2F
:101700004FF47A72DA60374B00221A61354B0022AF
:101710005A61344B80229A61324807F0CBFE03466F
:10172000002B01D004F0C2FC4FF48053BB6407F1DE
:10173000480319462B4808F0EDFD0346002B01D065
:1017400004F0B4FC274807F004FF0346002B01D047
:1017500004F0ACFC00233B6400237B6407F14003EE
:101760001946204809F044FB0346002B01D004F041
:101770009DFC60237B620023BB620023FB6200238D
:101780007B630023BB630023FB6307F124030C226C
:101790001946144808F0FCFC0346002B01D004F065
:1017A00085FC00237B600023BB600023FB600023DB
:1017B0003B6100237B614FF40053BB6100233B621C
:1017C0003B1D1946074809F08FFB0346002B01D04B
:1017D00004F06CFC034805F0CDF800BF5837BD4657
:1017E00080BD00BFA00200200000014080B58CB089
:1017F00000AF07F10C032422002118460DF00AFA6D
:101800003B1D00221A605A60214B4FF080421A6043
:101810001F4B00225A601E4B00229A601C4B4FF651
:10182000FF72DA601A4B00221A61194B00229A618A
:101830000323FB6000233B6101237B610023BB6129
:101840000A23FB6100233B6201237B620023BB620E
:101850000A23FB6207F10C0319460D4808F0C0F992
:101860000346002B01D004F021FC00237B60002301
:10187000BB603B1D1946064809F0BAFA0346002B27
:1018800001D004F013FC00BF3037BD4680BD00BF5F
:10189000E802002080B58CB000AF07F10C032422D1
:1018A000002118460DF0B6F93B1D00221A605A605F
:1018B000204B214A1A601F4B00225A601D4B002208
:1018C0009A601C4B4FF6FF72DA601A4B00221A61C5
:1018D000184B00229A610323FB6000233B61012324
:1018E0007B610023BB610A23FB6100233B62012370
:1018F0007B620023BB620A23FB6207F10C031946DB
:101900000C4808F06DF90346002B01D004F0CEFB23
:1019100000237B600023BB603B1D1946054809F08E
:1019200067FA0346002B01D004F0C0FB00BF30373C
:10193000BD4680BD300300200004004080B586B065
:1019400000AF07F1100300221A605A603B460022E4
:101950001A605A609A60DA60204B214A1A601F4B65
:101960000F225A601D4B00229A601C4B4FF6FF72EB
:10197000DA601A4B00221A61184B00229A6117484C
:1019800007F008FF0346002B01D004F08FFB002373
:101990003B6100237B6107F1100319460F4809F0F2
:1019A00027FA0346002B01D004F080FB00233B60A4
:1019B00001237B600023BB600023FB603B460422C5
:1019C0001946064808F048FB0346002B01D004F0F6
:1019D0006DFB00BF1837BD4680BD00BF78030020F7
:1019E0000008004080B596B000AF07F14803002220
:1019F0001A605A609A60DA6007F1400300221A60A8
:101A00005A6007F1240300221A605A609A60DA6073
:101A10001A615A619A613B1D2022002118460DF07F
:101A2000F9F8434B434A1A60414B00225A60404B3D
:101A300000229A603E4B41F61F42DA603C4B002286
:101A40001A613B4B00225A61394B00229A61384897
:101A500007F030FD0346002B01D004F027FB4FF4C4
:101A60008053BB6407F148031946314808F052FC23
:101A70000346002B01D004F019FB2D4807F069FD47
:101A80000346002B01D004F011FB00233B6400232C
:101A90007B6407F140031946254809F0A9F903467C
:101AA000002B01D004F002FB60237B620023BB62A9
:101AB0000023FB6200233B6300237B630023BB63A3
:101AC0000023FB6307F1240300221946184808F09D
:101AD0005FFB0346002B01D004F0E8FA07F1240372
:101AE00004221946124808F053FB0346002B01D08C
:101AF00004F0DCFA00237B600023BB600023FB6062
:101B000000233B6100237B614FF40053BB61002342
:101B10003B623B1D1946064809F0E6F90346002BD7
:101B200001D004F0C3FA00BF5837BD4680BD00BFE6
:101B3000C00300200004014080B500AF114B124AE1
:101B40001A60104B4FF4E1325A600E4B00229A603B
:101B50000C4B0022DA600B4B00221A61094B0C225D
:101B60005A61084B00229A61064B0022DA6105484F
:101B700009F020FA0346002B01D004F097FA00BFC9
:101B800080BD00BF080400200048004080B58AB036
:101B900000AF07F1140300221A605A609A60DA60FD
:101BA0001A6100233B614D4B1B6B4C4A43F0100301
:101BB00013634A4B1B6B03F010033B613B6900232B
:101BC000FB60464B1B6B454A43F004031363434BD6
:101BD0001B6B03F00403FB60FB680023BB603F4BFF
:101BE0001B6B3E4A43F0010313633C4B1B6B03F03A
:101BF0000103BB60BB6800237B60384B1B6B374A1B
:101C000043F002031363354B1B6B03F002037B604D
:101C10007B6800233B60314B1B6B304A43F0080369
:101C200013632E4B1B6B03F008033B603B680022E1
:101C30004FF4BC612A4805F0CBFF00223C21294823
:101C400005F0C6FF00224FF48261274805F0C0FF6F
:101C50004FF4BC637B610123BB610023FB61002364
:101C60003B6207F1140319461D4805F015FE3C239D
:101C70007B610123BB610023FB6102233B6207F10F
:101C800014031946174805F007FE4FF482637B6181
:101C90000123BB610023FB6100233B6207F11403B6
:101CA0001946114805F0F8FD4FF480737B614FF43D
:101CB0000413BB610023FB6107F1140319460B48B1
:101CC00005F0EAFD00220521172005F01CFD172074
:101CD00005F035FD00BF2837BD4680BD0038024005
:101CE000001002400000024000040240000C0240CC
:101CF00080B584B000AF78608F4B9B78A3F1300241
:101D000013469B0013445B001A468B4BDB78303B39
:101D10001344FB60884B5B782F2B0CD9864B5B7888
:101D2000392B08D8844B5B78303B642202FB03F3E9
:101D3000FA681344FB60814B00221A707E4B1B78BB
:101D4000532B59D17C4B5B78542B55D17C4B1B6862
:101D500000225A637A4B1B6800229A63794B1A78E7
:101D6000794B1A70774B0B221A70784B4FF00002A8
:101D70001A60774B00221A80764800F0F0FB764814
:101D800000F0EDFB754800F0EAFB754B00221A806D
:101D9000744B1A78734B5B789A4212D1724B64225F
:101DA0001A70714B00225A80704A0F2170480CF053
:101DB000FDFE4FF6FF7306226E496F4809F047F9A2
:101DC00003E3684B5B78684A66499B000B445B6899
:101DD0001360644B5B780133624A927893FBF2F1B3
:101DE00001FB02F29B1ADAB25E4B5A70634A0F2172
:101DF0005F480CF0DBFEE8E24F4B1B78462B3DD1F1
:101E00004D4B5B78572B03D04B4B5B78532B35D125
:101E1000494B9B782D2B05D1474BDB782D2B01D1DE
:101E2000012300E00023DAB2444B1A70424B5B7886
:101E3000532B14BF01230023DBB21A46504B1A70F8
:101E4000484B1B78474A9B00134401221A71454BAB
:101E50001B78FA6891B2434A9B0013440A46DA8021
:101E6000404B1B7801333F4A927893FBF2F101FB20
:101E700002F29B1ADAB23B4B1A70A6E22E4B1B7889
:101E8000422B3DD12C4B5B78572B03D02A4B5B78F0
:101E9000532B35D1284B9B782D2B05D1264BDB7846
:101EA0002D2B01D1012300E00023DAB2234B1A705D
:101EB000214B5B78532B14BF01230023DBB21A465E
:101EC0002F4B1A70274B1B78264A9B001344022283
:101ED0001A71244B1B78FA6891B2224A9B00134472
:101EE0000A46DA801F4B1B7801331E4A927893FB17
:101EF000F2F101FB02F29B1ADAB21A4B1A7064E299
:101F00000D4B1B78462B5CD10B4B5B784C2B58D17F
:101F1000094B9B782D2B05D1074BDB782D2B01D15D
:101F2000012300E00023DAB2044B1A70034B1B7844
:101F3000002B27D0032126E080040020E4040020A9
:101F4000C00300203401002035010020EC040020F3
:101F5000F20400201C0500200805002030050020A8
:101F6000000500208C040020C00400206C02010841
:101F7000C404002074020108080400207C02010847
:101F80003601002007218D4B1B788C4A9B0013449F
:101F90000A461A71894B1B78FA6891B2874A9B00EE
:101FA00013440A46DA80854B1B780133834A9278C2
:101FB00093FBF2F101FB02F29B1ADAB27F4B1A702B
:101FC00003E27F4B1B78462B36D17D4B5B78522B3F
:101FD00032D17B4B9B782D2B05D1794BDB782D2B88
:101FE00001D1012300E00023DAB2764B1A70754B61
:101FF0001B78002B01D0042100E008216F4B1B78D7
:102000006E4A9B0013440A461A716C4B1B78FA689F
:1020100091B26A4A9B0013440A46DA80674B1B78E8
:102020000133664A927893FBF2F101FB02F29B1AAC
:10203000DAB2624B1A70C8E1614B1B78422B36D181
:102040005F4B5B784C2B32D15D4B9B782D2B05D1B0
:102050005B4BDB782D2B01D1012300E00023DAB2AA
:10206000584B1A70574B1B78002B01D0052100E00C
:102070000921524B1B78514A9B0013440A461A719E
:102080004E4B1B78FA6891B24C4A9B0013440A46A7
:10209000DA804A4B1B780133484A927893FBF2F17D
:1020A00001FB02F29B1ADAB2444B1A708DE1444BE9
:1020B0001B78422B36D1424B5B78522B32D1404BAE
:1020C0009B782D2B05D13E4BDB782D2B01D10123A5
:1020D00000E00023DAB23B4B1A703A4B1B78002B1E
:1020E00001D0062100E00A21344B1B78334A9B00C3
:1020F00013440A461A71314B1B78FA6891B22F4A81
:102100009B0013440A46DA802C4B1B7801332B4A80
:10211000927893FBF2F101FB02F29B1ADAB2274BA1
:102120001A7052E1264B1B78542B21D1244B5B783B
:102130004C2B1DD1214B1B78204A9B0013440B22B2
:102140001A711E4B1B78FA6891B21C4A9B0013440B
:102150000A46DA80194B1B780133184A927893FBB0
:10216000F2F101FB02F29B1ADAB2144B1A702CE165
:10217000134B1B78542B27D1114B5B78522B23D157
:102180000E4B1B780D4A9B0013440C221A710B4B0B
:102190001B78FA6891B2094A9B0013440A46DA8018
:1021A000064B1B780133054A927893FBF2F101FB51
:1021B00002F29B1ADAB2014B1A7006E18C0400207D
:1021C00080040020E4040020974B1B78492B21D188
:1021D000954B5B78522B1DD1944B1B78934A9B00F7
:1021E00013440D221A71914B1B78FA6891B28F4AF1
:1021F0009B0013440A46DA808C4B1B7801338B4AD0
:10220000927893FBF2F101FB02F29B1ADAB2874B50
:102210001A70DAE0844B1B78442B21D1824B5B7817
:10222000542B1DD1814B1B78804A9B0013440E22F6
:102230001A717E4B1B78FA6891B27C4A9B0013445A
:102240000A46DA80794B1B780133784A927893FBFF
:10225000F2F101FB02F29B1ADAB2744B1A70B4E08D
:10226000714B1B785A2B21D16F4B5B785A2B1DD1A8
:102270006E4B1B786D4A9B0013440F221A716B4BF7
:102280001B78FA6891B2694A9B0013440A46DA80C7
:10229000664B1B780133654A927893FBF2F101FBA0
:1022A00002F29B1ADAB2614B1A708EE05E4B1B7819
:1022B000572B21D15C4B5B78582B1DD15B4B1B7886
:1022C0005A4A9B00134410221A71584B1B78FA6823
:1022D00091B2564A9B0013440A46DA80534B1B784E
:1022E0000133524A927893FBF2F101FB02F29B1AFE
:1022F000DAB24E4B1A7068E04B4B1B78572B21D14A
:10230000494B5B784E2B1DD1484B1B78474A9B00AD
:10231000134411221A71454B1B78FA6891B2434A53
:102320009B0013440A46DA80404B1B7801333F4A36
:10233000927893FBF2F101FB02F29B1ADAB23B4B6B
:102340001A7042E0384B1B78412B1DD1374B1B785C
:10235000364A9B00134458221A71344B1B78FA6892
:1023600091B2324A9B0013440A46DA802F4B1B7805
:1023700001332E4A927893FBF2F101FB02F29B1A91
:10238000DAB22A4B1A7020E0274B1B78432B1CD162
:10239000264B1B78254A9B00134459221A71234B64
:1023A0001B78FA6891B2214A9B0013440A46DA80EE
:1023B0001E4B1B7801331D4A927893FBF2F101FB0F
:1023C00002F29B1ADAB2194B1A70184B1A78174B93
:1023D0005B789A4219D0154B5B78154A13499B00DC
:1023E0000B445B681360114B5B7801330F4A9278A2
:1023F00093FBF2F101FB02F29B1ADAB20B4B5A701B
:102400000C4A0F210C480CF0D1FB0C4B1B685B688D
:102410000B4B1B789BB21A460349084808F0A9FEEB
:1024200000BF1037BD4680BD800400208C04002012
:10243000C00400207C020108C4040020080400201D
:102440000000002080B582B000AF0346FB802D4B1A
:102450001B68002B51D1FB88B3F5807F4ED1294BEF
:1024600001221A60284B93F90030DBB2274A127818
:1024700010460733D9B2254A830013440A461A711D
:10248000224B1B78214A9B0013440022DA801F4B09
:102490001B7801331D4A927893FBF2F101FB02F2A3
:1024A0009B1ADAB2194B1A70184B5B78184A174905
:1024B0009B000B445B681360144B5B780133134A39
:1024C000927893FBF2F101FB02F29B1ADAB20F4B06
:1024D0005A70104A0F2110480CF068FB0A4B93F910
:1024E000003001335A4203F0030302F0030258BFE5
:1024F00053425AB2044B1A7000E000BF0837BD4681
:1025000080BD00BF780500207C0500208C040020E1
:10251000C00400207C020108C404002080B485B0FF
:1025200000AFF86087ED020AC7ED010A87ED001AD7
:10253000FB68BA681A60FB687A685A60FB683A6898
:102540009A60FB684FF00002DA60FB684FF000020F
:102550001A6100BF1437BD465DF8047B704780B434
:1025600083B000AF78607B684FF00002DA607B6870
:102570004FF000021A6100BF0C37BD465DF8047BC6
:102580007047000080B586B004AF0346FB714FF67C
:10259000FF73029302230193A94B00930123372277
:1025A000D021A84805F084FDA54B1B781B021AB268
:1025B000A34B5B781BB213431AB2A34B1A80A34BF5
:1025C0001B681B6803F01003102B01D1012201E0EE
:1025D0004FF0FF329E4B1A709B4BB3F9003013F152
:1025E000040F04DB984BB3F900300B2B07DD964B3F
:1025F000B3F9003007EE903AF8EEE77A01E0DFED4C
:10260000957A954B93ED007A77EE877A924BC3EDEE
:10261000007AFB79002B64D1904B93ED007A8E4BBE
:10262000D3ED007A27EE277A8C4BD3ED016A8B4BE2
:10263000D3ED047A66EEA77A37EE277A874BD3ED8F
:10264000026A864B93ED036A834BD3ED007A76EEF4
:10265000677A66EEA77A77EE277AFDEEE77A17EECD
:10266000902A7F4B1A607C4B1B687C4AD3607B4B63
:1026700093ED047A784BD3ED007A77EE277A774B97
:10268000C3ED047A764B1B68B3F5167F06DC744BFA
:102690001B68744A9342B8BF134601E04FF41673A7
:1026A0006F4A13606A4B93F900309AB26C4B1B6807
:1026B0009BB212FB03F39BB203F596639AB26A4B8B
:1026C0001A80634B93F900309AB2654B1B689BB23A
:1026D00012FB03F39BB2C3F596639AB2634B1A8065
:1026E000EFE0FB79022B65D1614B93ED007A5A4BF9
:1026F000D3ED007A27EE277A5D4BD3ED016A5C4B70
:10270000D3ED047A66EEA77A37EE277A584BD3EDED
:10271000026A574B93ED036A4F4BD3ED007A76EE86
:10272000677A66EEA77A77EE277AFDEEE77A17EEFC
:10273000902A4B4B1A60484B1B684D4AD3604C4B58
:1027400093ED047A444BD3ED007A77EE277A484B29
:10275000C3ED047A424B1B68B3F52F7F06DC404B78
:102760001B68444A9342B8BF134601E04FF42F73ED
:102770003B4A1360364B93F900309AB2384B1B68D2
:102780009BB212FB03F39BB203F6B8339AB2364BFB
:102790001A802F4B93F900309AB2314B1B689BB2D1
:1027A00012FB03F39BB2C3F53B6308339AB22F4B82
:1027B0001A8086E0FB79012B40F083802E4B93ED4D
:1027C000007A254BD3ED007A27EE277A2A4BD3EDFA
:1027D000016A294BD3ED047A66EEA77A37EE277AA1
:1027E000254BD3ED026A244B93ED036A1A4BD3EDCC
:1027F000007A76EE677A66EEA77A77EE277AFDEEB4
:10280000E77A17EE902A164B1A60134B1B681A4A88
:10281000D360194B93ED047A0F4BD3ED007A77EE2A
:10282000277A154BC3ED047A0D4B1B68B3F52F7F48
:1028300024DC0B4B1B680F4A9342B8BF13461FE0C2
:10284000F00400204C020020F2040020E8020020E6
:102850003C01002000000000EC0400201C050020CA
:1028600080050020A8FDFFFFF4040020F6040020EE
:102870003005002044FDFFFF080500204FF42F73B2
:10288000174A1360174B93F900309AB2144B1B6828
:102890009BB212FB03F39BB203F6FC039AB2124BFA
:1028A0001A80104B93F900309AB20D4B1B689BB203
:1028B00012FB03F39BB2C3F50F630C339AB20B4BBD
:1028C0001A80094B1A880A4B1B685A63074B1A88EF
:1028D000074B1B689A6300BF0837BD4680BD00BF29
:1028E000800500203C010020F4040020F6040020B4
:1028F000C003002080B586B004AF03463960FB7189
:102900004FF6FF730293022301939B4B0093012325
:102910003722D021994805F0CBFB974B1B781B023F
:102920001AB2954B5B781BB213431AB2944B1A80C0
:10293000944B1B681B6803F01003102B01D101227C
:1029400001E04FF0FF32904B1A708D4BB3F900301D
:1029500013F1040F04DB8A4BB3F900300B2B07DDB6
:10296000874BB3F9003007EE903AF8EEE77A01E0D2
:10297000DFED867A864B93ED007A77EE877A844B8B
:10298000C3ED007AFB79012B65D1824B93ED007A80
:102990007F4BD3ED007A27EE277A7E4BD3ED016A89
:1029A0007C4BD3ED047A66EEA77A37EE277A794B23
:1029B000D3ED026A774B93ED036A754BD3ED007A42
:1029C00076EE677A66EEA77A77EE277AFDEEE77AFB
:1029D00017EE902A704B1A606D4B1B686D4AD360DE
:1029E0006C4B93ED047A6A4BD3ED007A77EE277A3D
:1029F000684BC3ED047A684B1B68B3F52F7F06DC88
:102A0000654B1B68654A9342B8BF134601E04FF41B
:102A10002F73614A13605C4B93F900309AB25E4B9E
:102A20001B689BB212FB03F39BB203F6FC039AB242
:102A30005B4B1A80544B93F900309AB2564B1B688B
:102A40009BB212FB03F39BB2C3F50F630C339AB234
:102A5000544B1A8067E0FB79022B64D1524B93ED03
:102A6000007A4B4BD3ED007A27EE277A4E4BD3ED0D
:102A7000016A4D4BD3ED047A66EEA77A37EE277ADA
:102A8000494BD3ED026A484B93ED036A404BD3EDBB
:102A9000007A76EE677A66EEA77A77EE277AFDEE11
:102AA000E77A17EE902A3C4B1A60394B1B683E4A76
:102AB000D3603D4B93ED047A354BD3ED007A77EE3E
:102AC000277A394BC3ED047A334B1B68B3F52F7F5C
:102AD00006DC314B1B68314A9342B8BF134601E014
:102AE0004FF42F732C4A1360274B93F900309AB29E
:102AF000294B1B689BB212FB03F39BB203F6B8335E
:102B00009AB2274B1A80204B93F900309AB2224B8D
:102B10001B689BB212FB03F39BB2C3F53B63083304
:102B20009AB2204B1A801E4B1B8807EE903AB8EEE3
:102B3000E77A3B68D3ED007A67EE277A1B4B1B6878
:102B4000FCEEE77A17EE902A5A63164B1B8807EEC5
:102B5000903AB8EEE77A3B68D3ED007A67EE277AD1
:102B6000124B1B68FCEEE77A17EE902A9A6300BFBF
:102B70000837BD4680BD00BFF00400204C02002095
:102B8000F2040020E80200203C01002000000000C8
:102B9000EC040020080500208005002044FDFFFF14
:102BA000F4040020F604002030050020C0030020BB
:102BB00080B584B000AF78600B46FB701346BB70E5
:102BC000A14B4FF000021A60A04B00221A80A048CF
:102BD000FFF7C5FC9F48FFF7C2FC9F48FFF7BFFC0B
:102BE0009E4B00221A807B681B681846FDF7A4FCE8
:102BF0008FA3D3E90023FDF7F7FC02460B461046EE
:102C000019468DA3D3E90023FDF736FB02460B4698
:102C1000104619464FF00002914BFDF70FFE024699
:102C20000B46104619464FF000028E4BFDF7DCFCB8
:102C300002460B46104619464FF000028A4BFDF73C
:102C40001BFB02460B4610461946FDF767FF03467D
:102C50009AB2864B1A8004F04BF80346844A1360FC
:102C6000FB78002B0CBF01230023DBB21A460421A2
:102C7000804804F0ADFFFB78002B14BF0123002334
:102C8000DBB21A4608217B4804F0A2FFFB78002B38
:102C90000CBF01230023DBB21A462021754804F043
:102CA00097FFFB78002B14BF01230023DBB21A46E9
:102CB0001021704804F08CFF6F4B1B685B6A9AB25E
:102CC0006E4B1A806C4B1B685B6AFB606A4B1B681F
:102CD0001B6803F01003102B17D1684B1B881A4692
:102CE000FB68934206D8654B1A88FB689BB2D31ADF
:102CF0009BB207E0614B1A88FB689BB2D31A9BB268
:102D0000013B9BB25E4A138016E05C4B1B881A465F
:102D1000FB68934206D3FB689AB2584B1B88D31AC0
:102D20009BB207E0FB689AB2544B1B88D31A9BB244
:102D3000013B9BB2524A1380FB689AB24F4B1A80F8
:102D4000464B1A884E4B1B8813449AB2434B1A8049
:102D5000424B1A88454B1B889A4280F0A88003F0AA
:102D6000C7FF0246424B1B68D31A092BAAD9BB786E
:102D7000002B03D10020FFF705FC92E0374B1B88A6
:102D80001A463A4B1B88D31A002BB8BF5B423D4A08
:102D900082FB0312D211DB17D31A07EE903AF8EE3A
:102DA000E77A394BC3ED007ABB78012B1ED1364B45
:102DB000D3ED007AB7EE007AF4EEC77AF1EE10FAAE
:102DC00002DD4FF07E530EE02F4BD3ED007AB6EECE
:102DD000087AF4EEC77AF1EE10FA02D54FF07D537F
:102DE00001E0294B1B68284A136055E0BB78022B91
:102DF00052D1254BD3ED007AB7EE007AF4EEC77AC4
:102E0000F1EE10FA02DD4FF07E5343E01E4B1B68DB
:102E10001846FDF791FB0AA3D3E90023FDF756FE00
:102E20000346002B34D0194B34E000BFAFF30080D1
:102E30002AB266FCAC66F23FF82625BBD4E3EE3F2F
:102E40009A9999999999D93FEC040020F2040020AD
:102E50001C0500200805002030050020000500208A
:102E60000000344000A094400000244002050020EF
:102E7000F804002000000240E802002006050020BF
:102E8000040500206757192138010020CDCCCC3E25
:102E90000D4B1B680C4A1360BB780B491846FFF7B3
:102EA00029FD03F025FF0346084A13600AE700BF27
:102EB000074B1B6800225A63054B1B6800229A636C
:102EC00000BF1037BD4680BD38010020F804002047
:102ED000C00300200000000080B582B000AF786021
:102EE0000B46FB70AA4B4FF000021A60A94B002260
:102EF0001A80A948FFF733FBA848FFF730FBA84822
:102F0000FFF72DFBA74BA84A1A600421A74806F03B
:102F100091FC03F0EDFE0346A54A13600122102147
:102F2000A44804F055FEA14B1B6800225A629F4B37
:102F30001B685B6A092BFAD9002210219D4804F016
:102F400047FE9A4B1B68DA68984B1B6842F00402F4
:102F5000DA600A2009F0B2F97B6893ED007A914BB0
:102F6000D3ED007A77EE677AFDEEE77A17EE903AC6
:102F7000002B0EDB7B6893ED007A8A4BD3ED007A51
:102F800077EE677AFDEEE77A17EE903A002B40F382
:102F9000E7807B6893ED007A824BD3ED007AB4EE44
:102FA000E77AF1EE10FA94BF01230023DBB283F03D
:102FB0000103DBB2DBB21A4604217F4804F008FEAD
:102FC0007B6893ED007A774BD3ED007AB4EEE77A25
:102FD000F1EE10FA94BF01230023DBB21A46082158
:102FE000754804F0F5FD7B6893ED007A6D4BD3EDE9
:102FF000007AB4EEE77AF1EE10FA94BF01230023D1
:10300000DBB283F00103DBB2DBB21A4620216A484F
:1030100004F0DEFD7B6893ED007A624BD3ED007A1D
:10302000B4EEE77AF1EE10FA94BF01230023DBB28D
:103030001A461021604804F0CBFD03F059FE024609
:103040005B4B1B68D31A132B7FF668AFFB78012B01
:103050003FD1544B93ED007A7B68D3ED007A77EE45
:10306000677AFDEEE77A17EE903A002BB8BF5B4225
:10307000524A82FB03121A44D210DB17D31A07EE0E
:10308000903AF8EEE77A4E4BC3ED007A4C4BD3ED15
:10309000007AB7EE007AF4EEC77AF1EE10FA02DDAC
:1030A0004FF07E530EE0464BD3ED007AB6EE087A31
:1030B000F4EEC77AF1EE10FA02D54FF07D5301E03D
:1030C0003F4B1B683E4A13603D490120FFF712FC4D
:1030D00040E0344B93ED007A7B68D3ED007A77EED5
:1030E000677AFDEEE77A17EE903A002BB8BF5B42A5
:1030F000324A82FB03121A44D210DB17D31A07EEAE
:10310000903AF8EEE77A2E4BC3ED007A2C4BD3EDD4
:10311000007AB7EE007AF4EEC77AF1EE10FA02DD2B
:103120004FF07E5310E0264B1B681846FDF704FA5B
:1031300015A3D3E90023FDF7C9FC0346002B01D0FA
:10314000204B01E01E4B1B681D4A13601C490220E6
:10315000FFF7D0FB03F0CCFD0346154A1360DDE614
:1031600000BF194B1B6800225A63174B1B680022D3
:103170009A6304210D4806F085FC00BF0837BD4660
:1031800080BD00BFAFF300809A9999999999D93F72
:10319000EC040020F20400201C050020080500209B
:1031A000300500204C05002000007A447803002000
:1031B000F80400200004024000000240898888884A
:1031C00038010020CDCCCC3EC00300200000000020
:1031D00080B582B000AF7860A14B00221A80A14B6D
:1031E00000221A60A04BA14A1A6003F081FD034639
:1031F0009F4A13609F4803F0EFFD14219D4803F0A0
:10320000F0FE9C4803F078FF0246964B1B6813447F
:10321000944A1360924B1B880133974A82FB031236
:103220005111DA178A1A642101FB02F29A1A92B23A
:103230008B4B1A808A4B1B88632B29D1894B1B68C7
:10324000874A1288B3FBF2F31846FDF753F97EA3C1
:10325000D3E90023FDF710F802460B467CA1D1E923
:103260000001FDF7EBFA02460B4610461946FDF742
:1032700075FC03467C4A13607A4B1B68784A1288B7
:10328000B3FBF2F39AB27D4B1A80764B00221A60A0
:103290007B68D3ED007AF5EEC07AF1EE10FA1CDD12
:1032A0007B6893ED007A704BD3ED007A77EE677A06
:1032B000FDEEE77A17EE903A002B0EDB7B6893ED7C
:1032C000007A694BD3ED007A77EE677AFDEEE77A04
:1032D00017EE903A002B40F3A4807B6893ED007AC0
:1032E000614BD3ED007AB4EEE77AF1EE10FA94BFB9
:1032F00001230023DBB283F00103DBB2DBB21A4609
:1033000004215F4804F064FC7B6893ED007A564B1F
:10331000D3ED007AB4EEE77AF1EE10FA94BF012310
:103320000023DBB21A460821554804F051FC7B68A3
:1033300093ED007A4C4BD3ED007AB4EEE77AF1EEE0
:1033400010FA94BF01230023DBB283F00103DBB248
:10335000DBB21A4620214A4804F03AFC7B6893ED20
:10336000007A414BD3ED007AB4EEE77AF1EE10FA31
:1033700094BF01230023DBB21A461021404804F019
:1033800027FC03F0B5FC0246394B1B68D31A092B06
:103390007FF630AF344B93ED007A7B68D3ED007A43
:1033A00077EE677AFDEEE77A17EE903A002BB8BF1A
:1033B0005B42344A82FB03121A44D210DB17D31A41
:1033C00007EE903AF8EEE77A2F4BC3ED007A2E4BDA
:1033D000D3ED007AB7EE007AF4EEC77AF1EE10FA88
:1033E00002DD4FF07E5310E0274B1B681846FDF7B7
:1033F000A3F819A3D3E90023FDF768FB0346002BCC
:1034000001D0224B01E0204B1B681F4A13601E496C
:103410000220FFF76FFA03F06BFC0346144A1360B7
:10342000E8E600BF1A4B1B6800225A63184B1B6862
:1034300000229A630F4803F0A1FD00BF0837BD4684
:1034400080BD00BFAFF30080D32357FBC54670405B
:1034500066834C32340BD940333333333333D33F69
:1034600050050020540500204805002000007A4443
:10347000F8040020BC0100201F85EB51440500200A
:103480000000024089888888380100209A99993E76
:10349000C003002000000000B0B586B004AF786023
:1034A0004B4B4FF000021A604A4B00221A8003F087
:1034B0001FFC0346484A136003F01AFC0246464BC1
:1034C0001B68D31A092BF7D94FF6FF730293022317
:1034D0000193424B009301233722D021404804F04E
:1034E000E7FD3E4B1B781B021AB23C4B5B781BB2CC
:1034F00013431AB2374B1A80354B1B681846FDF739
:103500001BF804460D46334BB3F900301846FDF75F
:1035100001F82BA3D3E90023FDF790F902460B46EF
:103520001046194628A3D3E90023FDF75DF80246AB
:103530000B4620462946FCF7A1FE02460B461046E4
:103540001946FDF70BFB0346214A1360204B93ED10
:10355000007A7B68D3ED007A77EE677AFDEEE77A42
:1035600017EE903A002B0DDB194B93ED007A7B6838
:10357000D3ED007A77EE677AFDEEE77A17EE903AB0
:10358000002B05DD03F0B4FB0346134A136093E7F9
:1035900000BF144B1B6800225A63124B1B680022A9
:1035A0009A63114B1B684A221A644FF4967003F019
:1035B000ABFB00BF0837BD46B0BD00BFAFF3008016
:1035C00066666666666630407B14AE47E17A843F85
:1035D000EC040020F2040020F8040020F004002095
:1035E0004C020020C0030020A002002000000000C8
:1035F000B0B586B004AF7860494B4FF000021A6056
:10360000484B00221A8003F073FB0346464A1360BE
:1036100003F06EFB0246444B1B68D31A092BF7D903
:103620004FF6FF73029302230193404B0093012353
:103630003722D0213E4804F03BFD3C4B1B781B0257
:103640001AB23A4B5B781BB213431AB2354B1A804D
:10365000334B1B681846FCF76FFF04460D46314B91
:10366000B3F900301846FCF755FF29A3D3E900232E
:10367000FDF7E4F802460B461046194626A3D3E9A7
:103680000023FCF7B1FF02460B4620462946FCF713
:10369000F5FD02460B4610461946FDF75FFA034654
:1036A0001F4A13601E4B93ED007A7B68D3ED007ABE
:1036B00077EE677AFDEEE77A17EE903A002B0DDB96
:1036C000174B93ED007A7B68D3ED007A77EE677A3B
:1036D000FDEEE77A17EE903A002B05DD03F008FBCC
:1036E0000346114A136093E700BF124B1B68002288
:1036F0005A63104B1B6800229A630F4B1B684A22C7
:103700001A64C82003F000FB00BF0837BD46B0BDF7
:1037100066666666666630407B14AE47E17A843F33
:10372000EC040020F2040020F8040020F004002043
:103730004C020020C0030020A002002080B500AF92
:10374000164B174A1A60174B1B6873221A644FF402
:10375000967003F0D9FA00220421134804F038FAD5
:1037600001220821104804F033FA002220210E48DB
:1037700004F02EFA012210210B4804F029FA0B4B19
:103780001B6840F6B8325A63084B1B684FF4487206
:103790009A630248FFF780FE00BF80BDE804002066
:1037A0000000ACC2A002002000000240C0030020C4
:1037B00080B500AF164B174A1A60174B1B6873226F
:1037C0001A644FF4967003F09FFA00220421134804
:1037D00004F0FEF901220821104804F0F9F9002252
:1037E00020210E4804F0F4F9012210210B4804F0C6
:1037F000EFF90B4B1B6840F6B8325A63084B1B6855
:103800004FF448729A630248FFF746FE00BF80BD3E
:10381000E8040020000030C3A002002000000240A5
:10382000C003002080B582B000AF78600022042180
:10383000254804F0CDF901220821234804F0C8F9F5
:1038400000222021204804F0C3F9012210211E4843
:1038500004F0BEF97B681B78012B01D0032B15D136
:103860001A4B1B4A1A601B4B1B6832221A644FF416
:10387000967003F049FA184B1B684FF4FA625A63CA
:10388000154B1B6840F6AC529A6315E00F4B104A7B
:103890001A60104B1B6834221A644FF4967003F0C0
:1038A00033FA0D4B1B6840F6B8325A630A4B1B685B
:1038B00040F6AC529A6300BF0448FFF799FE00BF80
:1038C0000837BD4680BD00BF00000240E80400206C
:1038D0000000A642A0020020C003002080B582B0F4
:1038E00000AF786000220421304804F071F9012211
:1038F00008212E4804F06CF9002220212B4804F006
:1039000067F901221021294804F062F97B681B78CD
:10391000012B02D0032B16D02BE0254B254A1A6031
:10392000254B1B6832221A644FF4967003F0ECF9B1
:10393000224B1B684FF4FA625A63204B1B6840F617
:10394000AC529A632BE01A4B1D4A1A601A4B1B6843
:1039500032221A644FF4967003F0D6F9174B1B68A5
:103960004FF4FA625A63154B1B6840F6AC529A63E7
:1039700015E00F4B134A1A600F4B1B6834221A6470
:103980004FF4967003F0C0F90C4B1B6840F6B83248
:103990005A630A4B1B6840F6AC529A6300BF044856
:1039A000FFF726FE00BF0837BD4680BD000002407D
:1039B000E80400200000A642A0020020C00300206E
:1039C0000000AA4200009E4280B582B000AF78603D
:1039D00000220421254804F0FBF801220821234895
:1039E00004F0F6F800222021204804F0F1F801222A
:1039F00010211E4804F0ECF87B681B78012B01D0E5
:103A0000032B15D11A4B1B4A1A601B4B1B687322E0
:103A10001A644FF4967003F077F9184B1B6840F660
:103A2000AC525A63154B1B684FF4FA629A6315E067
:103A30000F4B134A1A60104B1B6862221A644FF432
:103A4000967003F061F90D4B1B6840F6AC525A6357
:103A50000A4B1B6840F6A8429A6300BF0448FFF770
:103A6000C7FD00BF0837BD4680BD00BF0000024053
:103A7000E804002000002CC3A0020020C0030020A6
:103A800000002AC30000000080B500AF464B4FF095
:103A900000021A60454B4FF000021A60444B0022AE
:103AA0001A8003F025F90346424A1360424803F0A6
:103AB00093F91421404803F094FA3F4803F01CFBAB
:103AC00002463E4B1B6813443C4A13603C4B1B8828
:103AD00001333C4A82FB03125111DA178A1A64211E
:103AE00001FB02F29A1A92B2354B1A80344B1B88B2
:103AF000632B29D1314B1B68314A1288B3FBF2F397
:103B00001846FCF7F7FC24A3D3E90023FCF7B4FB29
:103B100002460B4622A1D1E90001FCF78FFE0246C6
:103B20000B4610461946FDF719F803461E4A136066
:103B3000224B1B68224A1288B3FBF2F39AB2224B43
:103B40001A801E4B00221A60174BD3ED007A9FEDAE
:103B50001F7AF4EEC77AF1EE10FA10DC03F0C8F821
:103B60000246144B1B68D31A092B9FD90220FEF77B
:103B700009FD03F0BDF803460E4A136096E700BF47
:103B8000134B1B6800225A63114B1B6800229A6377
:103B900000BF80BDAFF30080D32357FBC546704004
:103BA00066834C32340BD94048050020EC040020D9
:103BB000F2040020F8040020BC010020540500207D
:103BC000500500201F85EB514405002000002042D5
:103BD000C00300200000000080B500AF464B474AFC
:103BE0001A60474B4FF000021A60464B00221A80C1
:103BF00003F07EF80346444A1360444803F0ECF8AF
:103C00001421424803F0EDF9404803F075FA0246EA
:103C10003F4B1B6813443E4A13603E4B1B880133E5
:103C20003D4A82FB03125111DA178A1A642101FB03
:103C300002F29A1A92B2374B1A80364B1B88632BCA
:103C400029D1334B1B68334A1288B3FBF2F3184671
:103C5000FCF750FC24A3D3E90023FCF70DFB02463C
:103C60000B4623A1D1E90001FCF7E8FD02460B4613
:103C700010461946FCF772FF03461F4A1360244B97
:103C80001B68244A1288B3FBF2F39AB2234B1A80C2
:103C90001F4B00221A60184BD3ED007A9FED207A5B
:103CA000F4EEC77AF1EE10FA10D403F021F80246D0
:103CB000154B1B68D31A092B9FD90220FEF762FC13
:103CC00003F016F80346104A136096E700BF154B41
:103CD0001B6800225A63134B1B6800229A6300BFC3
:103CE00080BD00BFAFF30080D32357FBC5467040B3
:103CF00066834C32340BD9404805002000007A44DA
:103D0000EC040020F2040020F8040020BC01002094
:103D100054050020500500201F85EB51440500206C
:103D200000002042C003002080B582B000AF786060
:103D3000234BD3ED007AFDEEE77A17EE903A214A55
:103D4000102121480AF032FF204B1B681846FCF76F
:103D5000F3FB17A3D3E90023FCF770FD02460B46E3
:103D60001046194614A3D3E90023FCF73DFC024694
:103D70000B4610461946FCF7F1FE0346144A136041
:103D8000134BD3ED007AFDEEE77A17EE903A114A25
:103D900010210D480AF00AFF0B4A0821002002F00A
:103DA000F3FA02F089F9FA2008F088FAC0E700BFB8
:103DB00066666666666630407B14AE47E17A843F8D
:103DC0005805002084020108D4040020EC040020DF
:103DD000840500208C02010880B582B000AF7860B5
:103DE000C64B1B78013B632B00F27A8201A252F88A
:103DF00023F000BF853F0008853F0008A13F000871
:103E0000A13F0008A13F0008A13F00087141000840
:103E10007F4100088D4100089B410008A94100082E
:103E2000A9410008F1410008F941000807420008D3
:103E30001542000823420008E1420008E142000860
:103E4000E1420008E1420008E1420008E1420008C6
:103E5000E1420008E1420008E1420008E1420008B6
:103E6000E1420008E1420008E1420008E1420008A6
:103E7000E1420008E1420008E1420008E142000896
:103E8000E1420008E1420008E1420008E142000886
:103E9000E1420008E1420008E1420008E142000876
:103EA000E1420008E1420008E1420008E142000866
:103EB000E1420008E1420008E1420008E142000856
:103EC000E1420008E1420008E1420008E142000846
:103ED000E1420008E1420008E1420008E142000836
:103EE000E1420008E1420008E1420008E142000826
:103EF000E1420008E1420008E1420008E142000816
:103F0000E1420008E1420008E1420008E142000805
:103F1000E1420008E1420008E1420008E1420008F5
:103F2000E1420008E1420008E1420008E1420008E5
:103F3000E1420008E1420008E1420008E1420008D5
:103F4000E1420008E1420008E1420008E1420008C5
:103F50003142000831420008E1420008E142000815
:103F6000E1420008E1420008E1420008E1420008A5
:103F7000E1420008E1420008E1420008E142000895
:103F8000E14200085D4B1B78012B14BF0123002385
:103F9000DBB21A465A4B1A70584B63221A70A0E1D2
:103FA000564B1B78574A1B0113440433D3ED007A58
:103FB0009FED557AF4EEC77AF1EE10FA01DD732326
:103FC0001CE04E4B1B784F4A1B0113440433D3EDC6
:103FD000007A9FED4E7AF4EEC77AF1EE10FA01D531
:103FE00032230BE0454B1B78464A1B011344043334
:103FF000D3ED007AFCEEE77A17EE903A444A126865
:1040000013644FF4967002F07FFE3C4B1B783D4AE0
:104010001B01134408331B683E4A1360374B1B785F
:10402000384A1B0113440C331B78002B0CBF0123AF
:104030000023DBB21A460421374803F0C9FD2F4B99
:104040001B78304A1B0113440C331B78002B14BF20
:1040500001230023DBB21A4608212F4803F0B8FDE4
:10406000264B1B78274A1B0113440C331B78002B6B
:104070000CBF01230023DBB21A462021264803F09F
:10408000A7FD1E4B1B781F4A1B0113440C331B78E2
:10409000002B14BF01230023DBB21A4610211E4857
:1040A00003F096FD154B1B78164A1B0113441A8822
:1040B0001A4B1B685A63114B1B78124A1B0113449D
:1040C00002331A88154B1B689A63154B1A78144BE8
:1040D0005B789A422ED1094B64221A70074B00225A
:1040E0005A80104A0F2110480AF060FD4FF6FF7306
:1040F00006220E490E4806F0AAFF35E0C004002053
:1041000034010020040000200000E6420000484284
:10411000A0020020E804002000000240C0030020AC
:104120008C0400206C020108C40400207402010801
:10413000080400206D4B5B786D4A6C499B000B4472
:104140005B681360694B5B780133684A927893FB34
:10415000F2F101FB02F29B1ADAB2644B5A70654A23
:104160000F2165480AF022FD614B63221A70B8E006
:10417000624B02221A705E4B63221A70B1E05F4BF1
:1041800003221A705A4B63221A70AAE05B4B042276
:104190001A70574B63221A70A3E0584B05221A700D
:1041A000534B63221A709CE0514B1B780B2B04D0AD
:1041B000534B1B6873221A6403E0514B1B68322275
:1041C0001A644FF4967002F09FFD494B64221A70F6
:1041D000474B00225A804B4A0F2147480AF0E6FC21
:1041E0004FF6FF7306224849484806F030FF78E052
:1041F000424B06221A7074E0404B07221A703C4B67
:1042000063221A706DE03D4B0A221A70384B63220C
:104210001A7066E0394B08221A70354B63221A7007
:104220005FE0364B09221A70314B63221A7058E056
:104230002F4B1B78582B04D0314B1B6873221A6408
:1042400003E02F4B1B6832221A644FF4967002F081
:104250005BFD002204212E4803F0BAFC0122082154
:104260002B4803F0B5FC00222021294803F0B0FCC4
:1042700001221021264803F0ABFC1D4B1B78582B64
:1042800013D11B4B5B8807EE903AF8EE677A214B0F
:10429000C3ED007A204B1B684FF448725A631E4BE3
:1042A0001B684FF496629A6313E0114B5B885B4284
:1042B00007EE903AF8EEE77A164BC3ED007A164B0C
:1042C0001B684FF496625A63134B1B684FF4487295
:1042D0009A63074B63221A700E48FFF7DDF800E07F
:1042E00000BF642007F0EAFF7AE500BF8C040020DD
:1042F000C00400207C020108C40400203401002016
:10430000A00200206C0201087402010808040020C9
:1043100000000240E8040020C003002080B584B003
:1043200000AF78600023FB810023BB60274B1B7824
:10433000062B04D04FF47A7007F0C0FFF6E7244B49
:1043400063221A70234B244A1A602248FEF740FF6A
:10435000224B00221A601D4B1A78214B1A701B4BFE
:104360000B221A701F4B1A781E4B5B789A4212D19F
:10437000174B64221A70164B00225A801A4A0F21DA
:104380001A480AF013FC4FF6FF7306221849194821
:1043900006F05DFECAE7134B5B780D4A11499B009E
:1043A0000B445B6813600F4B5B7801330D4A9278C6
:1043B00093FBF2F101FB02F29B1ADAB2094B5A703D
:1043C0000D4A0F2109480AF0F1FBAFE73401002044
:1043D000C0040020FC0400200000204278050020DA
:1043E000350100208C0400206C020108C404002068
:1043F00074020108080400207C02010880B582B024
:1044000000AF7860854B1B78002B08D0834B1B785E
:10441000012B04D04FF47A7007F050FFFCE0804B82
:104420001B78002B7ED07F4B4FF000021A607E4B32
:1044300000221A807D48FEF792F87D48FEF78FF83B
:104440007C48FEF78CF8754B1B78002B14BF0123BA
:104450000023DBB21A460421774803F0B9FB6F4B07
:104460001B78002B0CBF01230023DBB21A46082166
:10447000714803F0ADFB694B1B78002B14BF01237F
:104480000023DBB21A4620216B4803F0A1FB634BEB
:104490001B78002B0CBF01230023DBB21A4610212E
:1044A000654803F095FB654B1B6800225A63634B1C
:1044B0001B6800229A63594B1A78614B1A70574B4C
:1044C0000B221A705F4B00221A605F4B64221A7035
:1044D0005D4B00225A805D4A0F215D480AF066FB61
:1044E0004FF6FF7306225B495B4806F0B0FD02F011
:1044F000FFFB0346594A1360494B1B78002B00F021
:104500008A8002F0F5FB0246544B1B68D31A092B34
:10451000F2D90020FEF736F802F0EAFB03464F4AD4
:104520001360E9E7484B5B8807EE903AF8EE677A4C
:104530004B4BC3ED007A4A4BD3ED007AB2EE0E7AC4
:10454000F4EEC77AF1EE10FA02D8464B00221A7048
:10455000444B1B78002B0CD1304B1B78002B0CBF2D
:1045600001230023DBB2012219463D48FEF720FB60
:104570000BE02A4B1B78002B0CBF01230023DBB27E
:10458000022219463648FEF713FB2C4B1B6800220B
:104590005A632A4B1B6800229A63204B1A78284BD7
:1045A0001A701E4B0B221A70264B00221A602E4BDB
:1045B0001A782D4B5B789A4212D1234B64221A70E1
:1045C000214B00225A80214A0F2121480AF0EEFA9D
:1045D0004FF6FF7306221F491F4806F038FD11E70A
:1045E000214B5B78184A20499B000B445B681360A1
:1045F0001D4B5B7801331C4A927893FBF2F101FB6F
:1046000002F29B1ADAB2184B5A70184A0F2110485E
:104610000AF0CCFAF6E600BFF4E600BF3401002051
:10462000E4040020EC040020F20400201C0500201B
:10463000080500203005002000000240C0030020D3
:104640003501002078050020C00400206C0201081C
:10465000C40400207402010808040020F8040020AB
:10466000FC040020360100208C0400207C0201089C
:10467000B0B588B004AF78600023FB73844B1B781F
:10468000082B04D04FF47A7007F018FEF6E7814B40
:1046900093F90030002B07D17F4B804A1A6002212A
:1046A0007D48FEF719FC3CE27A4B93F90030012B70
:1046B00040F098810023FB73794B4FF000021A60A1
:1046C000784B00221A80784B4FF000021A60774B2B
:1046D000774A1A60774B4FF000021A60764B1B68DE
:1046E00032221A644FF4967002F00EFB734B1B6873
:1046F0004FF416725A63714B1B684FF47A729A63C7
:10470000002204216E4803F063FA012208216C485C
:1047100003F05EFA00222021694803F059FA0122D1
:104720001021674803F054FA0421664805F082F826
:1047300002F0DEFA0346644A13604FF6FF730293F9
:1047400002230193614B009301233722D02160485B
:1047500003F0AEFC5D4B1B781B021AB25B4B5B781F
:104760001BB213431AB24F4B1A80FB7B002B1DD197
:1047700001221021574803F02BFA524B1B680022EC
:104780005A62504B1B685B6A092BFAD90022102130
:10479000504803F01DFA4B4B1B68DA68494B1B6805
:1047A00042F00402DA60052007F088FD02F0A0FA6A
:1047B0000246454B1B68D31A092BBED9384B1B68E0
:1047C0001846FBF7B9FE04460D46364BB3F90030E8
:1047D0001846FBF79FFE2AA3D3E90023FCF72EF827
:1047E00002460B461046194627A3D3E90023FBF7E0
:1047F000FBFE02460B4620462946FBF73FFD0246DC
:104800000B4610461946FCF7A9F90346244A1360E3
:10481000284BD3ED007A9FED307AF4EEC77AF1EEB3
:1048200010FA08DDFB7B002B05D11D4B1B681E4ACF
:1048300013600123FB731D4B93ED007A184BD3EDEE
:10484000007A77EE677AFDEEE77A17EE903A002B62
:104850000DDB164B93ED007A114BD3ED007A77EE1A
:10486000677AFDEEE77A17EE903A002B36DD02F01C
:104870003FFA0346144A13605FE700BFAFF30080BE
:1048800066666666666630407B14AE47E17A843FB2
:10489000340100207C050020FC0400200000F041D1
:1048A000EC040020F204002064050020E80400204D
:1048B0000000B4424C050020A0020020C0030020EC
:1048C0000000024078030020F8040020F0040020DB
:1048D0004C0200200004024000005C4200BFA24BDA
:1048E0001B6800225A63A04B1B6800229A639F4BEF
:1048F0001B684A221A644FF4967002F005FA0A20E7
:1049000007F0DCFC9A4B1B681846FBF715FE94A3D6
:10491000D3E90023FBF768FE02460B461046194612
:104920004FF00002934BFBF789FF02460B461046FF
:104930001946FCF713F9034600EE103A0AF0E8FEB8
:10494000F0EE407AB3EE0E7A67EE877A8A4BC3EDCB
:10495000007A894BD3ED007A9FED887A77EE677AFB
:10496000F3EE0E6A87EEA67AB0EE470A0AF0F4FD7F
:10497000F0EE407A9FED827A67EE877A17EE900A22
:10498000FBF7DAFD76A3D3E90023FBF757FF0246D6
:104990000B4610461946FCF7E1F80346794A1360C6
:1049A000754BD3ED007A9FED757A37EE677A724BCF
:1049B000D3ED007ADFED716A76EEE77A67EE277A5B
:1049C0009FED717A77EE877AB0EE670A0AF0A6FD5E
:1049D000F0EE407AB3EE077A77EEC77A6B4BC3ED11
:1049E000007A9EE06A4B93F90030022B05D1FFF765
:1049F0004BF80A2007F062FC93E0654B93F9003016
:104A0000032B05D1FEF7D4FE0A2007F057FC88E0FF
:104A10005F4B93F90030042B05D1FFF7DDF80A2036
:104A200007F04CFC7DE05A4B93F90030052B05D183
:104A3000FFF72AF80A2007F041FC72E0544B93F983
:104A40000030062B05D1FEF779FE0A2007F036FC70
:104A500067E04F4B93F90030072B05D1FFF714F8AF
:104A60000A2007F02BFC5CE0494B93F90030082B3F
:104A70001DD13E4B1B6873221A644FF4967002F0EE
:104A800043F9394B1B684FF4FA625A63364B1B6883
:104A90004FF47A729A633B4BD3ED007AF1EE677A6A
:104AA0003C4BC3ED007A3B48FEF7F6FC39E0384B4F
:104AB00093F90030092B09D1344B1B68364A136037
:104AC000002201213448FEF773F82AE0304B93F9B5
:104AD00000300A2B19D1254B1B6832221A644FF47F
:104AE000967002F011F9204B1B684FF47A725A63EA
:104AF0001D4B1B684FF4FA629A63224B1B68254AD0
:104B000013602448FEF7C8FC0BE0214B93F90030FA
:104B10000B2B06D1204B214A1A6002211E48FEF7BA
:104B2000DBF91F4B00221A601E4B1A781E4B1A70BD
:104B30001C4B0B221A701D4B64221A701B4B002257
:104B40005A801B4A0F211B480AF030F84FF6FF73BA
:104B500006221949194806F07AFA8FE5AFF300806A
:104B600050455254FB210940C0030020A002002000
:104B700064050020008066405C0500200000704253
:104B800000003443680500200000614460050020F7
:104B90007C050020E8040020FC0400200000704197
:104BA000780500203401002035010020C0040020D9
:104BB0006C020108C40400207402010808040020EB
:104BC00080B582B000AF7860314B1B780A2B1CD0C7
:104BD0004FF47A7007F072FBF6E701224FF4806120
:104BE0002C4802F0F5FF642007F068FB00224FF428
:104BF0008061284802F0ECFF642007F05FFB264B41
:104C00005B88013B9AB2244B5A80234B5B88002B74
:104C1000E3D11F4B1A78214B1A701D4B0B221A70CF
:104C20001F4B00221A601F4B1A781E4B5B789A426A
:104C300012D1194B64221A70174B00225A801A4A5B
:104C40000F211A4809F0B2FF4FF6FF7306221849E8
:104C5000184806F0FCF9B7E7124B5B780E4A114989
:104C60009B000B445B6813600E4B5B7801330D4A6D
:104C7000927893FBF2F101FB02F29B1ADAB2094B34
:104C80005A700D4A0F21094809F090FF9CE700BFB8
:104C90003401002000040240C0040020350100203F
:104CA000780500208C0400206C020108C404002058
:104CB00074020108080400207C02010880B582B05B
:104CC00000AF78609D4B1B78022B04D04FF47A70B4
:104CD00007F0F4FAF6E79A4B5B88142B00F081801A
:104CE0001E2B40F00781974BD3ED3D7A9FED967ACE
:104CF000F4EEC77AF1EE10FA01DD732312E0914B66
:104D0000D3ED3D7A9FED917AF4EEC77AF1EE10FA89
:104D100001D5322306E08B4BD3ED3D7AFCEEE77AEA
:104D200017EE903A8A4A126813644FF4967001F0B5
:104D3000EBFF844BD3F8F830864A1360814B93F82D
:104D4000FC30002B0CBF01230023DBB21A460421E8
:104D5000814802F03DFF7B4B93F8FC30002B14BFE1
:104D600001230023DBB21A4608217B4802F030FF02
:104D7000744B93F8FC30002B0CBF01230023DBB2F3
:104D80001A462021744802F023FF6E4B93F8FC3042
:104D9000002B14BF01230023DBB21A4610216E48FA
:104DA00002F016FF674BB3F8F0206C4B1B685A6398
:104DB000644BB3F8F220694B1B689A636548FEF7B1
:104DC0006BFB0A2007F07AFA654B4FF081421A60BC
:104DD000002200216248FDF7EBFE0A2007F06EFA80
:104DE00026E15F4B4FF081421A60002200215C48AF
:104DF000FDF7DEFE0A2007F061FA524BD3ED2D7A63
:104E00009FED517AF4EEC77AF1EE10FA01DD7323CB
:104E100012E04C4BD3ED2D7A9FED4C7AF4EEC77A2D
:104E2000F1EE10FA01D5322306E0464BD3ED2D7A90
:104E3000FCEEE77A17EE903A454A126813644FF495
:104E4000967001F061FF3F4BD3F8B830414A1360D0
:104E50003C4B93F8BC30002B0CBF01230023DBB28A
:104E60001A4604213C4802F0B3FE364B93F8BC309E
:104E7000002B14BF01230023DBB21A460821364859
:104E800002F0A6FE2F4B93F8BC30002B0CBF012381
:104E90000023DBB21A4620212F4802F099FE294B4D
:104EA00093F8BC30002B14BF01230023DBB21A4659
:104EB0001021294802F08CFE224BB3F8B020274B7A
:104EC0001B685A631F4BB3F8B220244B1B689A63CC
:104ED0002048FEF7E1FA0A2007F0F0F9204B214ABA
:104EE0001A60002200211E48FDF762FE0A2007F02A
:104EF000E5F99DE01A4B4FF082421A600022012131
:104F00001748FDF755FE0A2007F0D8F90D4BD3EDF1
:104F10001D7A9FED0D7AF4EEC77AF1EE10FA01DDFD
:104F2000732328E0074BD3ED1D7A9FED087AF4EE4A
:104F3000C77AF1EE10FA17D532231CE034010020B5
:104F4000C0040020040000200000E64200004842A7
:104F5000A0020020E804002000000240C00300205E
:104F6000FC0400200000E040504BD3ED1D7AFCEE25
:104F7000E77A17EE903A4E4A126813644FF496702F
:104F800001F0C2FE494B9B6F4A4A1360474B93F8AE
:104F90007C30002B0CBF01230023DBB21A46042116
:104FA000454802F015FE414B93F87C30002B14BFAE
:104FB00001230023DBB21A4608213F4802F008FE15
:104FC0003A4B93F87C30002B0CBF01230023DBB25B
:104FD0001A462021384802F0FBFD344B93F87C3010
:104FE000002B14BF01230023DBB21A4610213248E4
:104FF00002F0EEFD2D4BB3F87020304B1B685A6366
:105000002A4BB3F872202D4B1B689A632948FEF790
:1050100043FA0A2007F052F9294B2A4A1A60002263
:1050200000212748FDF7C4FD0A2007F047F900BF1B
:10503000254B00221A60254B1A78254B1A70234BFA
:105040000B221A70234B1A78224B5B789A4212D1AA
:10505000214B64221A70204B00225A801F4A0F21D4
:105060001F4809F0A3FD4FF6FF7306221D491E4895
:1050700005F0EDFF26E6174B5B78174A15499B00B4
:105080000B445B681360134B5B780133114A9278D1
:1050900093FBF2F101FB02F29B1ADAB20D4B5A704C
:1050A000124A0F210E4809F081FD0BE60400002092
:1050B000A0020020E804002000000240C0030020FD
:1050C000FC0400200000B0407805002034010020DE
:1050D000350100208C040020C00400206C0201086F
:1050E000C404002074020108080400207C020108A6
:1050F00080B582B000AF78609D4B1B78032B04D045
:105100004FF47A7007F0DAF8F6E79A4B5B88142BC5
:1051100000F081801E2B40F00881974BD3ED417A3F
:105120009FED967AF4EEC77AF1EE10FA01DD732363
:1051300012E0914BD3ED417A9FED917AF4EEC77A6C
:10514000F1EE10FA01D5322306E08B4BD3ED417A14
:10515000FCEEE77A17EE903A8A4A126813644FF42D
:10516000967001F0D1FD844BD3F80831864A136064
:10517000814B93F80C31002B0CBF01230023DBB2D1
:105180001A460421814802F023FD7B4B93F80C3131
:10519000002B14BF01230023DBB21A4608217B48F1
:1051A00002F016FD744B93F80C31002B0CBF012359
:1051B0000023DBB21A462021744802F009FD6E4B31
:1051C00093F80C31002B14BF01230023DBB21A46E5
:1051D00010216E4802F0FCFC674BB3F800216C4BC9
:1051E0001B685A63644BB3F80221694B1B689A63CE
:1051F0006548FEF751F90A2007F060F8654B4FF05B
:1052000081421A60002200216248FDF7D1FC0A2089
:1052100007F054F828E15F4B4FF081421A600022FA
:1052200000215C48FDF7C4FC0A2007F047F8524B08
:10523000D3ED317A9FED517AF4EEC77AF1EE10FAA0
:1052400001DD732312E04C4BD3ED317A9FED4C7AA4
:10525000F4EEC77AF1EE10FA01D5322306E0464BA0
:10526000D3ED317AFCEEE77A17EE903A454A1268B0
:1052700013644FF4967001F047FD3F4BD3F8C830EC
:10528000414A13603C4B93F8CC30002B0CBF0123F8
:105290000023DBB21A4604213C4802F099FC364B4D
:1052A00093F8CC30002B14BF01230023DBB21A4645
:1052B0000821364802F08CFC2F4B93F8CC30002BA1
:1052C0000CBF01230023DBB21A4620212F4802F035
:1052D0007FFC294B93F8CC30002B14BF0123002313
:1052E000DBB21A461021294802F072FC224BB3F8B7
:1052F000C020274B1B685A631F4BB3F8C220244BB6
:105300001B689A632048FEF7C7F80A2006F0D6FF0C
:10531000204B4FF082421A60002200211D48FDF709
:1053200047FC0A2006F0CAFF9EE01A4B1A4A1A6090
:10533000002201211748FDF73BFC0A2006F0BEFFC2
:105340000D4BD3ED217A9FED0D7AF4EEC77AF1EE95
:1053500010FA01DD732328E0074BD3ED217A9FED8E
:10536000087AF4EEC77AF1EE10FA17D532231CE072
:1053700034010020C0040020040000200000E642A8
:1053800000004842A0020020E80400200000024083
:10539000C0030020FC04002000004041514BD3ED2D
:1053A000217AFCEEE77A17EE903A4F4A12681364BE
:1053B0004FF4967001F0A8FC4A4BD3F888304B4A62
:1053C0001360484B93F88C30002B0CBF0123002353
:1053D000DBB21A460421464802F0FAFB414B93F82F
:1053E0008C30002B14BF01230023DBB21A460821A6
:1053F0003F4802F0EDFB3B4B93F88C30002B0CBF89
:1054000001230023DBB21A462021394802F0E0FBD9
:10541000344B93F88C30002B14BF01230023DBB2F4
:105420001A461021324802F0D3FB2E4BB3F88020ED
:10543000304B1B685A632B4BB3F882202D4B1B68F3
:105440009A632A48FEF728F80A2006F037FF2A4B0D
:105450004FF000021A60002201212748FDF7A8FB47
:105460000A2006F02BFF00BF244B00221A60244BB9
:105470001A78244B1A70224B0B221A70224B1A787E
:10548000214B5B789A4212D1204B64221A701F4B39
:1054900000225A801E4A0F211E4809F087FB4FF652
:1054A000FF7306221C491D4805F0D1FD24E6164B6A
:1054B0005B78164A14499B000B445B681360124BDF
:1054C0005B780133104A927893FBF2F101FB02F210
:1054D0009B1ADAB20C4B5A70114A0F210D4809F091
:1054E00065FB09E604000020A0020020E80400207B
:1054F00000000240C0030020FC04002078050020CA
:1055000034010020350100208C040020C00400205C
:105510006C020108C4040020740201080804002081
:105520007C02010880B582B000AF78609C4B1B788C
:10553000042B04D04FF47A7006F0C0FEF6E7994BC6
:105540005B88142B7FD01E2B40F00681964BD3ED49
:10555000457A9FED967AF4EEC77AF1EE10FA01DD06
:10556000732312E0904BD3ED457A9FED917AF4EEE0
:10557000C77AF1EE10FA01D5322306E08A4BD3ED5B
:10558000457AFCEEE77A17EE903A8A4A126813647D
:105590004FF4967001F0B8FB834BD3F81831864A6C
:1055A0001360814B93F81C31002B0CBF01230023A7
:1055B000DBB21A460421814802F00AFB7A4B93F8C9
:1055C0001C31002B14BF01230023DBB21A46082133
:1055D0007A4802F0FDFA744B93F81C31002B0CBF93
:1055E00001230023DBB21A462021744802F0F0FAAE
:1055F0006D4B93F81C31002B14BF01230023DBB249
:105600001A4610216D4802F0E3FA674BB3F81021F7
:105610006B4B1B685A63644BB3F81221684B1B68D1
:105620009A636548FDF738FF0A2006F047FE654B90
:10563000654A1A60002200216248FDF7B9FA0A2083
:1056400006F03CFE29E15F4B604A1A60002201210E
:105650005C48FDF7ADFA0A2006F030FE524BD3ED60
:10566000357A9FED527AF4EEC77AF1EE10FA01DD49
:10567000732312E04C4BD3ED357A9FED4D7AF4EE67
:10568000C77AF1EE10FA01D5322306E0464BD3ED8E
:10569000357AFCEEE77A17EE903A464A12681364C0
:1056A0004FF4967001F030FB3F4BD3F8D830424AAC
:1056B00013603D4B93F8DC30002B0CBF012300231B
:1056C000DBB21A4604213D4802F082FA364B93F8C9
:1056D000DC30002B14BF01230023DBB21A46082163
:1056E000364802F075FA304B93F8DC30002B0CBFD3
:1056F00001230023DBB21A462021304802F068FA69
:10570000294B93F8DC30002B14BF01230023DBB2BC
:105710001A461021294802F05BFA234BB3F8D02037
:10572000274B1B685A63204BB3F8D220244B1B68CD
:105730009A632148FDF7B0FE0A2006F0BFFD214B19
:105740004FF080421A60002201211E48FDF730FA16
:105750000A2006F0B3FDA0E01A4B4FF081421A6018
:10576000002201211748FDF723FA0A2006F0A6FDC2
:105770000D4BD3ED257A9FED0D7AF4EEC77AF1EE5D
:1057800010FA01DD73232AE0074BD3ED257A9FED54
:10579000087AF4EEC77AF1EE10FA19D532231EE03A
:1057A00034010020C0040020040000200000E64274
:1057B00000004842A0020020E8040020000002404F
:1057C000C0030020FC040020000090400000C04006
:1057D000514BD3ED257AFCEEE77A17EE903A4F4A1B
:1057E000126813644FF4967001F08EFA4A4BD3F8A6
:1057F00098304B4A1360484B93F89C30002B0CBFF9
:1058000001230023DBB21A460421464802F0E0F9E6
:10581000414B93F89C30002B14BF01230023DBB2D3
:105820001A4608213F4802F0D3F93B4B93F89C30CD
:10583000002B0CBF01230023DBB21A46202139487C
:1058400002F0C6F9344B93F89C30002B14BF0123AF
:105850000023DBB21A461021324802F0B9F92E4B70
:10586000B3F89020304B1B685A632B4BB3F892204F
:105870002D4B1B689A632A48FDF70EFE0A2006F09E
:105880001DFD2A4B2A4A1A60002200212748FDF7F5
:105890008FF90A2006F012FD00BF264B00221A6085
:1058A000254B1A78254B1A70234B0B221A70244B68
:1058B0001A78234B5B789A4212D1224B64221A70D9
:1058C000204B00225A80204A0F21204809F06EF90F
:1058D0004FF6FF7306221E491E4805F0B8FB25E669
:1058E000174B5B78174A16499B000B445B681360A3
:1058F000134B5B780133124A927893FBF2F101FB70
:1059000002F29B1ADAB20E4B5A70134A0F210F485B
:1059100009F04CF90AE600BF04000020A0020020B4
:10592000E804002000000240C0030020FC04002026
:10593000000040417805002034010020350100209E
:105940008C040020C00400206C020108C404002064
:1059500074020108080400207C02010880B582B0AE
:1059600000AF78609C4B1B78052B04D04FF47A7005
:1059700006F0A4FCF6E7994B5B88142B7FD01E2B16
:1059800040F00581964BD3ED497A9FED967AF4EE7F
:10599000C77AF1EE10FA01DD732312E0904BD3EDDC
:1059A000497A9FED917AF4EEC77AF1EE10FA01D5BB
:1059B000322306E08A4BD3ED497AFCEEE77A17EE04
:1059C000903A8A4A126813644FF4967001F09CF979
:1059D000834BD3F82831864A1360814B93F82C31DE
:1059E000002B0CBF01230023DBB21A46042181489F
:1059F00002F0EEF87A4B93F82C31002B14BF012300
:105A00000023DBB21A4608217A4802F0E1F8744B11
:105A100093F82C31002B0CBF01230023DBB21A4674
:105A20002021744802F0D4F86D4B93F82C31002BF0
:105A300014BF01230023DBB21A4610216D4802F087
:105A4000C7F8674BB3F820216B4B1B685A63644B54
:105A5000B3F82221684B1B689A636548FDF71CFD6B
:105A60000A2006F02BFC654B654A1A6000220021D3
:105A70006248FDF79DF80A2006F020FC2BE15F4B01
:105A8000604A1A60002201215C48FDF791F80A2063
:105A900006F014FC524BD3ED397A9FED527AF4EEB6
:105AA000C77AF1EE10FA01DD732312E04C4BD3ED0F
:105AB000397A9FED4D7AF4EEC77AF1EE10FA01D5FE
:105AC000322306E0464BD3ED397AFCEEE77A17EE47
:105AD000903A464A126813644FF4967001F014F934
